:100000000C9454000C940D060C940D060C940D06E3
:100010000C940D060C940D060C940D060C940D0614
:100020000C94FB030C940D060C940D060C940D0619
:100030000C940D060C940D060C940D060C940D06F4
:100040000C940D060C940D060C940D060C942202D3
:100050000C940D060C940D060C940D060C940D06D4
:100060000C948B030C940D060C940D060C940D0649
:100070000C940D060C94F8050C940D060C940D06CA
:100080000C940D060C940D060C94FD050C940D06B5
:1000900060006010000C38601060328060326034A4
:1000A000000C486034603880809101108F7C806043
:1000B000806898ED94BF8093011011241FBECFEF8C
:1000C000CDBFDFE7DEBFE0E9F0E040E017C0B5916B
:1000D000A59135912591059107FD0CC095918591CC
:1000E000EF01F92FE82F05900D92A217B307D9F76A
:1000F000FE0104C01D92A217B307E1F7E83AF40726
:0E01000031F70E949A000C94B705F894FFCFD7
:10010E00270541052D045B04C4030000F305880593
:04011E00E6050000F2
:10012200CC05C205D505E40479020A06DE050705F9
:02013200940532
:10013400CF93DF9300D000D0CDB7DEB70E94AC05DB
:1001440065E2CE0101960E94060664E2CE010396A2
:100154000E94060641E060E0CE0101960E944E0333
:1001640040E061E0CE0101960E944E0340E062E06F
:10017400CE0101960E944E0340E063E0CE01019659
:100184000E944E0341E064E0CE0101960E944E03BA
:1001940041E065E0CE0101960E944E0341E066E035
:1001A400CE0101960E944E0341E067E0CE01019624
:1001B4000E944E0341E060E0CE0103960E944E038C
:1001C40041E061E0CE0103960E944E0341E062E00B
:1001D400CE0103960E944E0341E063E0CE010396F4
:1001E4000E944E0341E064E0CE0103960E944E0358
:1001F40041E065E0CE0103960E944E0341E066E0D3
:10020400CE0103960E944E0341E067E0CE010396BF
:100214000E944E0367E0CE0103960E940D038823DB
:1002240031F063E0CE0101960E94690505C063E0E8
:10023400CE0101960E94560566E0CE0103960E9407
:100244000D03882331F062E0CE0101960E94690516
:1002540005C062E0CE0101960E94560565E0CE011C
:1002640003960E940D03882331F061E0CE010196CC
:100274000E94690505C061E0CE0101960E94560501
:0E02840087EA91E60197F1F700C00000C3CFB2
:10029200CF93DF9380E094E0FC011482C0E4D4E0C9
:1002A2001C82A0E6B4E020E114962C93149740EA55
:1002B20054E0FA01148228E0FC012083188228E12C
:1002C2002C93FA011082FC01108A118A128A138A75
:1002D200148A158A168A178A188A198A1A8A1B8A10
:1002E2001C8A1D8A1E8A1F8A50961C92509751960C
:1002F2001C92519752961C92529753961C92539766
:1003020054961C92549755961C92559756961C9249
:10031200569757961C92FA01108A118A128A138AEA
:10032200148A158A168A178AE0EEF5E01182108285
:100332001582178210861186168283E0828381E1FC
:1003420096E0809328609093296082E196E0809302
:1003520026609093276083E196E0809324609093D7
:10036200256084E196E0809322609093236085E18A
:1003720096E08093206090932160DF91CF91089561
:10038200CF93DF938091050982FF0CC0E0E1F0E694
:1003920086E0858783E08487E0E0F9E085818460F8
:1003A200858337C080910709882381F080910509F0
:1003B20084FF0CC0E0E1F0E685E0858781E0848778
:1003C200E0E0F9E085818061858323C0809108099E
:1003D200882381F08091050984FF0CC0E0E1F0E6FA
:1003E20085E0858782E08487E0E0F9E085818061AD
:1003F20085830FC08091050983FF0BC0E0E1F0E621
:1004020086E0858783E08487E0E0F9E08581886083
:100412008583C0E1D0E6ED85F0E0EE0FFF1FEE5DD3
:10042200FE470190F081E02D09958D878C85882308
:1004320029F0E0911E60F0911F600995DF91CF9144
:0204420008951B
:100444001F920F920FB60F9211242F933F934F9345
:100454005F936F937F938F939F93AF93BF93CF9348
:10046400DF93EF93FF938091050984FD07C080918A
:10047400050982FD03C08091050983FD0E94C10125
:1004840080910509882324F08091050986FF1CC00A
:100494008091050984FD08C08091050982FD04C08E
:1004A4008091050983FF03C00E94C1010DC0C0E112
:1004B400D0E6ED85F0E0EE0FFF1FEE5DFE47019004
:1004C400F081E02D09958D87FF91EF91DF91CF9118
:1004D400BF91AF919F918F917F916F915F914F9158
:0E04E4003F912F910F900FBE0F901F90189513
:1004F200CF93DF938091196090911A60019731F444
:10050200E0E0F9E084818460848305C0E0E0F9E002
:1005120084818B7F8483E0E1F0E681859285019777
:1005220081879287892BA9F0DF01C781D085E0E01E
:10053200F9E08085888317968D919C911897019692
:1005420017968D939C93189784818260848384E0AC
:1005520018C0A0E1B0E61796CD91DC911897E0E0C3
:10056200F9E08085888317968D919C911897019662
:1005720017968D939C9318978481846084830E943C
:080582000705DF91CF910895F8
:10058A0040E068ED80E690E00E94020640E068EDF7
:10059A0081E690E00E94020640E068ED88E790E07C
:1005AA000E94020644E168ED88E690E00E94020695
:1005BA0040E068ED89E690E00E94020640E068EDBE
:1005CA0080E790E00E94020640E068ED8CE790E048
:1005DA000E94020640E068ED82E690E00E94020670
:1005EA0040E068ED83E690E00E94020640E068ED94
:1005FA0084E690E00E94020640E068ED80E890E020
:10060A000E940206E0E6F0E0858181FFFDCF0895B1
:10061A00FF920F931F93CF93DF93CDB7DEB72B973C
:10062A00CDBFDEBFF62E29E029831A821B86FC0184
:10063A008081E0911681F091178101E010E09E011E
:10064A00255F3F4F41E050E0BE016F5F7F4F90E072
:10065A000995882369F000911C8110911D81F80188
:10066A0009958111FCCFE0911A81F0911B810995BE
:10067A008B8590E002C095958795FA94E2F7817090
:10068A002B96CDBFDEBFDF91CF911F910F91FF90C7
:02069A000895C1
:10069C00CF93DF93EC01413069F481E090E002C02C
:1006AC00880F991F6A95E2F790913760892B809398
:1006BC00376022C041110EC081E090E002C0880F6B
:1006CC00991F6A95E2F78095909137608923809302
:1006DC00376012C0423081F441E050E002C0440F58
:1006EC00551F6A95E2F780913760482B409337602D
:1006FC0066E088810E94B7044091376060E0888191
:0A070C000E94B704DF91CF91089519
:100716001F920F920FB60F9211242F933F934F9370
:100726005F936F937F938F939F93AF93BF93EF9353
:10073600FF937D9B05C0E0912860F09129600995A3
:100746007C9B05C0E0912660F091276009957B9B14
:1007560005C0E0912060F091216009958FEF8FB977
:10076600FF91EF91BF91AF919F918F917F916F9183
:100776005F914F913F912F910F900FBE0F901F9059
:020786001895C4
:100788008F929F92AF92BF92CF92DF92EF92FF9299
:100798000F931F93CF93DF935C016B017A0149019B
:1007A8000E948805811115C0C0E1D0E681E08883E8
:1007B800A982BA828B87CB82DC82ED82FE828F820D
:1007C800988609871A871C860E94D5058D8781E03F
:1007D80001C080E0DF91CF911F910F91FF90EF90C2
:0E07E800DF90CF90BF90AF909F908F900895BC
:1007F6001F920F920FB60F9211242F933F934F9390
:100806005F936F937F938F939F93AF93BF93EF9372
:10081600FF931B9B05C0E0912460F091256009952C
:100826001A9B05C0E0912260F091236009958FEF35
:1008360083B9FF91EF91BF91AF919F918F917F9176
:100846006F915F914F913F912F910F900FBE0F9037
:040856001F90189542
:10085A00CF92DF92EF92FF920F931F93CF93DF9382
:10086A006C017B018A010E948805811115C0C0E1D3
:10087A00D0E681E08883C982DA821B86EB82FC8219
:10088A000D831E831F82188619861A861C860E946B
:10089A00D5058D8781E001C080E0DF91CF911F915E
:0C08AA000F91FF90EF90DF90CF90089529
:1008B600CF92DF92EF92FF920F931F93CF93DF9326
:1008C6006C017B018A010E948805811115C0C0E177
:1008D600D0E681E08883C982DA821B86EF82F886B9
:1008E60009871A871B821C821D821E821C860E9413
:1008F600C2058D8781E001C080E0DF91CF911F9115
:0C0906000F91FF90EF90DF90CF900895CC
:10091200E0E0F8E086E191E080879187158280EC43
:10092200868383E08783138614861686158686E17E
:1009320096E080932E6090932F6087E196E08093FB
:100942002C6090932D6088E196E080932A609093CA
:100952002B601092306010923160E0913260F09121
:0C096200336080E090E68083918308956C
:10096E000F931F93CF93DF93CDB7DEB72A97CDBFEB
:10097E00DEBF69834A83E0911281F091138142E0D8
:10098E0050E0BE016F5F7F4F90E00995882369F0BC
:10099E0000911C8110911D81F80109958111FCCFE8
:1009AE00E0911A81F0911B8109952A96CDBFDEBF89
:0A09BE00DF91CF911F910F91089572
:1009C8008091156090911660892B91F0E0E1F0E636
:1009D80085819681019785839683A381B481CD0112
:1009E8000196838394838C918093080983E008950A
:1009F80080911B60882321F010921B6081E008958C
:060A08000E94070508959D
:100A0E00E0E0F9E0848183608483A0E1B0E61C928B
:100A1E008FEF90E011968D939C93129713961D92E3
:100A2E001C92149717961D921C9218971D961C9245
:100A3E008581806C858385818160858380E00895C2
:100A4E00E0E0F9E01082128282E28683178210863D
:100A5E0081EC83831582148283818E7F83838381CD
:100A6E008160838385818160858310921E601092E0
:040A7E001F60089558
:100A8200E0E0F9E01082128282E28683138215820C
:100A920017821482108683818E7F83838381816093
:0A0AA20083838581816085830895B8
:100AAC00FC0141E050E002C0440F551F6A95E2F78B
:100ABC0040959091366049234093366069E080817F
:060ACC000E94B70408952A
:100AD20041E050E002C0440F551F6A95E2F72091B1
:100AE2003660422B4093366069E0FC0180810E94AF
:040AF200B7040895A8
:100AF60040E068ED80E191E00E940206E0E1F1E06D
:0A0B060012821382789480E00895B3
:100B100080911060811105C08091050980958170D8
:080B200001C081E0817008951D
:100B2800E0E0F9E083818E7F838383818160838322
:080B38001092106080E00895A6
:100B4000CF93C82F0E94ED058823E1F3C0930208DC
:080B500080E090E0CF910895D0
:100B58000E94C5020E9449010E9427050E9489043B
:060B68000E947B050895C8
:100B6E00EC010E941A060E941906CE010E941B0675
:060B7E00CE010E940F06EB
:100B84008091116090911260880F816080930709B1
:040B940084E008955C
:100B980010921060E0E0F9E085818160858388E04B
:020BA8000895AE
:100BAA008091116090911260880F8093070983E009
:020BBA0008959C
:100BBC00E0E0F9E08581806C85830E9494050895BE
:0E0BCC00009721F080931E6090931F600895A3
:0C0BDA008091040885FB882780F90895AD
:0A0BE600E0E1F0E68485148608952E
:0A0BF0008F938FEF8BB98F9118954A
:0A0BFA008F938FEF87BB8F91189542
:080C0400FC0164BF4083089568
:080C0C00FC01608311820895D0
:060C14000E94070508958F
:040C1A000C94000036
:040C1E000E948500AB
:020C2200089533
:020C2400089531
:020C260008952F
:020C280008952D
:020C2A0008952B
:020C2C00089529
:020C2E00089527
:020C3000089525
:020C3200089523
:020C3400089521
:020C360008951F
:100C3800030000000000000000000000A005000004
:020C4800346016
:02000004008278
:090000000000000000D00800001F
:00000001FF
